{
  "contractName": "NotPoisoned",
  "abi": [
    {
      "inputs": [],
      "payable": true,
      "stateMutability": "payable",
      "type": "constructor"
    },
    {
      "payable": true,
      "stateMutability": "payable",
      "type": "fallback"
    },
    {
      "constant": false,
      "inputs": [
        {
          "name": "amount",
          "type": "uint256"
        }
      ],
      "name": "bid",
      "outputs": [],
      "payable": false,
      "stateMutability": "nonpayable",
      "type": "function"
    },
    {
      "constant": false,
      "inputs": [],
      "name": "reduceBid",
      "outputs": [],
      "payable": false,
      "stateMutability": "nonpayable",
      "type": "function"
    },
    {
      "constant": false,
      "inputs": [
        {
          "name": "auction",
          "type": "address"
        }
      ],
      "name": "setTarget",
      "outputs": [],
      "payable": false,
      "stateMutability": "nonpayable",
      "type": "function"
    },
    {
      "constant": true,
      "inputs": [],
      "name": "getTarget",
      "outputs": [
        {
          "name": "",
          "type": "address"
        }
      ],
      "payable": false,
      "stateMutability": "view",
      "type": "function"
    },
    {
      "constant": true,
      "inputs": [],
      "name": "getBalance",
      "outputs": [
        {
          "name": "",
          "type": "uint256"
        }
      ],
      "payable": false,
      "stateMutability": "view",
      "type": "function"
    }
  ],
  "bytecode": "0x60806040526104a7806100136000396000f30060806040526004361061006d576000357c0100000000000000000000000000000000000000000000000000000000900463ffffffff168063057ae2351461006f57806312065fe014610086578063454a2ab3146100b1578063776d1a01146100de578063f00e6a2a14610121575b005b34801561007b57600080fd5b50610084610178565b005b34801561009257600080fd5b5061009b610274565b6040518082815260200191505060405180910390f35b3480156100bd57600080fd5b506100dc60048036038101908080359060200190929190505050610293565b005b3480156100ea57600080fd5b5061011f600480360381019080803573ffffffffffffffffffffffffffffffffffffffff1690602001909291905050506103d9565b005b34801561012d57600080fd5b50610136610452565b604051808273ffffffffffffffffffffffffffffffffffffffff1673ffffffffffffffffffffffffffffffffffffffff16815260200191505060405180910390f35b60008073ffffffffffffffffffffffffffffffffffffffff166000809054906101000a900473ffffffffffffffffffffffffffffffffffffffff1673ffffffffffffffffffffffffffffffffffffffff16141515610271576000809054906101000a900473ffffffffffffffffffffffffffffffffffffffff1690508073ffffffffffffffffffffffffffffffffffffffff1663057ae2356040518163ffffffff167c0100000000000000000000000000000000000000000000000000000000028152600401600060405180830381600087803b15801561025857600080fd5b505af115801561026c573d6000803e3d6000fd5b505050505b50565b60003073ffffffffffffffffffffffffffffffffffffffff1631905090565b60003073ffffffffffffffffffffffffffffffffffffffff1631821115801561030a5750600073ffffffffffffffffffffffffffffffffffffffff166000809054906101000a900473ffffffffffffffffffffffffffffffffffffffff1673ffffffffffffffffffffffffffffffffffffffff1614155b156103d5576000809054906101000a900473ffffffffffffffffffffffffffffffffffffffff1690508073ffffffffffffffffffffffffffffffffffffffff16631998aeef836040518263ffffffff167c01000000000000000000000000000000000000000000000000000000000281526004016020604051808303818588803b15801561039757600080fd5b505af11580156103ab573d6000803e3d6000fd5b50505050506040513d60208110156103c257600080fd5b8101908080519060200190929190505050505b5050565b3073ffffffffffffffffffffffffffffffffffffffff168173ffffffffffffffffffffffffffffffffffffffff1614151561044f57806000806101000a81548173ffffffffffffffffffffffffffffffffffffffff021916908373ffffffffffffffffffffffffffffffffffffffff1602179055505b50565b60008060009054906101000a900473ffffffffffffffffffffffffffffffffffffffff169050905600a165627a7a7230582018667b828dc9831a768fce7038ad315792b6e69529184ef33e19fd8a684b6a330029",
  "source": "pragma solidity 0.4.24;\n\nimport \"./AuctionInterface.sol\";\n\n/** @title NotPoisoned */\ncontract NotPoisoned {\n\n\taddress target;\n\n\t/* Constructor */\n\tfunction NotPoisoned() payable {}\n\n\t/* Bid function */\n\tfunction bid(uint amount) external {\n\t\tif ((amount <= this.balance) && (target != address(0))) {\n\t\t\tAuctionInterface _target = AuctionInterface(target);\n\t\t\t_target.bid.value(amount)();\n\t\t}\n\t}\n\n\tfunction reduceBid() external {\n\t\tif (target != address(0)) {\n\t\t\tAuctionInterface _target = AuctionInterface(target);\n\t\t\t_target.reduceBid();\n\t\t}\n\t}\n\n\tfunction setTarget(address auction) external {\n\t\tif (auction != address(this)) {\n\t\t\ttarget = auction;\n\t\t}\n\t}\n\n\tfunction getTarget() constant returns (address) {\n\t\treturn target;\n\t}\n\n\tfunction getBalance() constant returns (uint) {\n\t\treturn this.balance;\n\t}\n\n\tfunction() payable {}\n}\n",
  "sourcePath": "/home/sun/code/sp18-lab03/contracts/NotPoisoned.sol",
  "compiler": {
    "name": "solc",
    "version": "0.4.24+commit.e67f0147.Emscripten.clang"
  },
  "schemaVersion": "2.0.1",
  "updatedAt": "2018-07-28T11:17:29.177Z"
}